{
  "contractName": "digcert",
  "abi": [
    {
      "inputs": [
        {
          "internalType": "string",
          "name": "",
          "type": "string"
        },
        {
          "internalType": "uint256",
          "name": "",
          "type": "uint256"
        }
      ],
      "name": "document",
      "outputs": [
        {
          "internalType": "string",
          "name": "email",
          "type": "string"
        },
        {
          "internalType": "string",
          "name": "first_name",
          "type": "string"
        },
        {
          "internalType": "string",
          "name": "last_name",
          "type": "string"
        },
        {
          "internalType": "string",
          "name": "file_url",
          "type": "string"
        },
        {
          "internalType": "string",
          "name": "hash",
          "type": "string"
        }
      ],
      "stateMutability": "view",
      "type": "function"
    },
    {
      "inputs": [
        {
          "internalType": "string",
          "name": "_urlOri",
          "type": "string"
        },
        {
          "internalType": "string",
          "name": "_email",
          "type": "string"
        },
        {
          "internalType": "string",
          "name": "_fname",
          "type": "string"
        },
        {
          "internalType": "string",
          "name": "_lname",
          "type": "string"
        },
        {
          "internalType": "string",
          "name": "_url",
          "type": "string"
        },
        {
          "internalType": "string",
          "name": "_hash",
          "type": "string"
        }
      ],
      "name": "addSigner",
      "outputs": [],
      "stateMutability": "nonpayable",
      "type": "function"
    },
    {
      "inputs": [
        {
          "internalType": "string",
          "name": "_urlOri",
          "type": "string"
        }
      ],
      "name": "countSigner",
      "outputs": [
        {
          "internalType": "uint256",
          "name": "",
          "type": "uint256"
        }
      ],
      "stateMutability": "view",
      "type": "function"
    }
  ],
  "bytecode": "0x608060405234801561001057600080fd5b50610ae1806100206000396000f3fe608060405234801561001057600080fd5b50600436106100415760003560e01c80630f05f9b314610046578063307b92271461007a57806347303f0d146100aa575b600080fd5b610060600480360381019061005b9190610784565b6100c6565b604051610071959493929190610868565b60405180910390f35b610094600480360381019061008f919061062a565b6103d7565b6040516100a191906108de565b60405180910390f35b6100c460048036038101906100bf919061066b565b610401565b005b60008280516020810182018051848252602083016020850120818352809550505050505081815481106100f857600080fd5b90600052602060002090600502016000915091505080600001805461011c906109c2565b80601f0160208091040260200160405190810160405280929190818152602001828054610148906109c2565b80156101955780601f1061016a57610100808354040283529160200191610195565b820191906000526020600020905b81548152906001019060200180831161017857829003601f168201915b5050505050908060010180546101aa906109c2565b80601f01602080910402602001604051908101604052809291908181526020018280546101d6906109c2565b80156102235780601f106101f857610100808354040283529160200191610223565b820191906000526020600020905b81548152906001019060200180831161020657829003601f168201915b505050505090806002018054610238906109c2565b80601f0160208091040260200160405190810160405280929190818152602001828054610264906109c2565b80156102b15780601f10610286576101008083540402835291602001916102b1565b820191906000526020600020905b81548152906001019060200180831161029457829003601f168201915b5050505050908060030180546102c6906109c2565b80601f01602080910402602001604051908101604052809291908181526020018280546102f2906109c2565b801561033f5780601f106103145761010080835404028352916020019161033f565b820191906000526020600020905b81548152906001019060200180831161032257829003601f168201915b505050505090806004018054610354906109c2565b80601f0160208091040260200160405190810160405280929190818152602001828054610380906109c2565b80156103cd5780601f106103a2576101008083540402835291602001916103cd565b820191906000526020600020905b8154815290600101906020018083116103b057829003601f168201915b5050505050905085565b600080826040516103e89190610851565b9081526020016040518091039020805490509050919050565b6000866040516104119190610851565b90815260200160405180910390206040518060a00160405280878152602001868152602001858152602001848152602001838152509080600181540180825580915050600190039060005260206000209060050201600090919091909150600082015181600001908051906020019061048b92919061050a565b5060208201518160010190805190602001906104a892919061050a565b5060408201518160020190805190602001906104c592919061050a565b5060608201518160030190805190602001906104e292919061050a565b5060808201518160040190805190602001906104ff92919061050a565b505050505050505050565b828054610516906109c2565b90600052602060002090601f016020900481019282610538576000855561057f565b82601f1061055157805160ff191683800117855561057f565b8280016001018555821561057f579182015b8281111561057e578251825591602001919060010190610563565b5b50905061058c9190610590565b5090565b5b808211156105a9576000816000905550600101610591565b5090565b60006105c06105bb8461091e565b6108f9565b9050828152602081018484840111156105d857600080fd5b6105e3848285610980565b509392505050565b600082601f8301126105fc57600080fd5b813561060c8482602086016105ad565b91505092915050565b60008135905061062481610a94565b92915050565b60006020828403121561063c57600080fd5b600082013567ffffffffffffffff81111561065657600080fd5b610662848285016105eb565b91505092915050565b60008060008060008060c0878903121561068457600080fd5b600087013567ffffffffffffffff81111561069e57600080fd5b6106aa89828a016105eb565b965050602087013567ffffffffffffffff8111156106c757600080fd5b6106d389828a016105eb565b955050604087013567ffffffffffffffff8111156106f057600080fd5b6106fc89828a016105eb565b945050606087013567ffffffffffffffff81111561071957600080fd5b61072589828a016105eb565b935050608087013567ffffffffffffffff81111561074257600080fd5b61074e89828a016105eb565b92505060a087013567ffffffffffffffff81111561076b57600080fd5b61077789828a016105eb565b9150509295509295509295565b6000806040838503121561079757600080fd5b600083013567ffffffffffffffff8111156107b157600080fd5b6107bd858286016105eb565b92505060206107ce85828601610615565b9150509250929050565b60006107e38261094f565b6107ed818561095a565b93506107fd81856020860161098f565b61080681610a83565b840191505092915050565b600061081c8261094f565b610826818561096b565b935061083681856020860161098f565b80840191505092915050565b61084b81610976565b82525050565b600061085d8284610811565b915081905092915050565b600060a082019050818103600083015261088281886107d8565b9050818103602083015261089681876107d8565b905081810360408301526108aa81866107d8565b905081810360608301526108be81856107d8565b905081810360808301526108d281846107d8565b90509695505050505050565b60006020820190506108f36000830184610842565b92915050565b6000610903610914565b905061090f82826109f4565b919050565b6000604051905090565b600067ffffffffffffffff82111561093957610938610a54565b5b61094282610a83565b9050602081019050919050565b600081519050919050565b600082825260208201905092915050565b600081905092915050565b6000819050919050565b82818337600083830152505050565b60005b838110156109ad578082015181840152602081019050610992565b838111156109bc576000848401525b50505050565b600060028204905060018216806109da57607f821691505b602082108114156109ee576109ed610a25565b5b50919050565b6109fd82610a83565b810181811067ffffffffffffffff82111715610a1c57610a1b610a54565b5b80604052505050565b7f4e487b7100000000000000000000000000000000000000000000000000000000600052602260045260246000fd5b7f4e487b7100000000000000000000000000000000000000000000000000000000600052604160045260246000fd5b6000601f19601f8301169050919050565b610a9d81610976565b8114610aa857600080fd5b5056fea2646970667358221220f5917748cbc08efb4982e57852c12a5fdab3c658c5ef4c262ba916a052707cba64736f6c63430008040033",
  "immutableReferences": {},
  "source": "pragma solidity 0.8.4;\r\n\r\ncontract digcert {\r\n    struct Signer{\r\n        string email;\r\n        string first_name;\r\n        string last_name;\r\n        string file_url;\r\n        string hash;\r\n    }\r\n     \r\n    mapping (string => Signer[]) public document;\r\n\r\n    function addSigner(string memory _urlOri,string memory _email,string memory _fname,string memory _lname,string memory _url,string memory _hash)public{\r\n        document[_urlOri].push(Signer(_email,_fname,_lname,_url,_hash));\r\n    }\r\n\r\n    function countSigner(string memory _urlOri) public view returns (uint){\r\n        return document[_urlOri].length;\r\n    }\r\n\r\n}",
  "sourcePath": "D:\\KULIAH\\TUGAS AKHIR\\Django\\ta-TTE\\tte_vue\\contracts\\Sign.sol",
  "compiler": {
    "name": "solc",
    "version": "0.8.4+commit.c7e474f2.Emscripten.clang"
  },
  "schemaVersion": "3.4.3",
  "updatedAt": "2021-11-28T14:37:01.377Z",
  "devdoc": {
    "kind": "dev",
    "methods": {},
    "version": 1
  },
  "userdoc": {
    "kind": "user",
    "methods": {},
    "version": 1
  }
}