{
  "contractName": "digitalCertificate",
  "abi": [
    {
      "inputs": [
        {
          "internalType": "string",
          "name": "",
          "type": "string"
        }
      ],
      "name": "certificates",
      "outputs": [
        {
          "internalType": "string",
          "name": "email",
          "type": "string"
        },
        {
          "internalType": "string",
          "name": "key_url",
          "type": "string"
        },
        {
          "internalType": "string",
          "name": "cert_url",
          "type": "string"
        }
      ],
      "stateMutability": "view",
      "type": "function",
      "constant": true
    },
    {
      "inputs": [
        {
          "internalType": "string",
          "name": "email",
          "type": "string"
        },
        {
          "internalType": "string",
          "name": "key_url",
          "type": "string"
        },
        {
          "internalType": "string",
          "name": "cert_url",
          "type": "string"
        }
      ],
      "name": "addCertificate",
      "outputs": [],
      "stateMutability": "nonpayable",
      "type": "function"
    }
  ],
  "bytecode": "0x608060405234801561001057600080fd5b50610770806100206000396000f3fe608060405234801561001057600080fd5b50600436106100365760003560e01c80638f2b91ea1461003b578063ac9e57601461006d575b600080fd5b61005560048036038101906100509190610404565b610089565b6040516100649392919061055d565b60405180910390f35b61008760048036038101906100829190610445565b610261565b005b6000818051602081018201805184825260208301602085012081835280955050505050506000915090508060000180546100c290610668565b80601f01602080910402602001604051908101604052809291908181526020018280546100ee90610668565b801561013b5780601f106101105761010080835404028352916020019161013b565b820191906000526020600020905b81548152906001019060200180831161011e57829003601f168201915b50505050509080600101805461015090610668565b80601f016020809104026020016040519081016040528092919081815260200182805461017c90610668565b80156101c95780601f1061019e576101008083540402835291602001916101c9565b820191906000526020600020905b8154815290600101906020018083116101ac57829003601f168201915b5050505050908060020180546101de90610668565b80601f016020809104026020016040519081016040528092919081815260200182805461020a90610668565b80156102575780601f1061022c57610100808354040283529160200191610257565b820191906000526020600020905b81548152906001019060200180831161023a57829003601f168201915b5050505050905083565b60405180606001604052808481526020018381526020018281525060008460405161028c9190610546565b908152602001604051809103902060008201518160000190805190602001906102b69291906102f9565b5060208201518160010190805190602001906102d39291906102f9565b5060408201518160020190805190602001906102f09291906102f9565b50905050505050565b82805461030590610668565b90600052602060002090601f016020900481019282610327576000855561036e565b82601f1061034057805160ff191683800117855561036e565b8280016001018555821561036e579182015b8281111561036d578251825591602001919060010190610352565b5b50905061037b919061037f565b5090565b5b80821115610398576000816000905550600101610380565b5090565b60006103af6103aa846105ce565b6105a9565b9050828152602081018484840111156103c757600080fd5b6103d2848285610626565b509392505050565b600082601f8301126103eb57600080fd5b81356103fb84826020860161039c565b91505092915050565b60006020828403121561041657600080fd5b600082013567ffffffffffffffff81111561043057600080fd5b61043c848285016103da565b91505092915050565b60008060006060848603121561045a57600080fd5b600084013567ffffffffffffffff81111561047457600080fd5b610480868287016103da565b935050602084013567ffffffffffffffff81111561049d57600080fd5b6104a9868287016103da565b925050604084013567ffffffffffffffff8111156104c657600080fd5b6104d2868287016103da565b9150509250925092565b60006104e7826105ff565b6104f1818561060a565b9350610501818560208601610635565b61050a81610729565b840191505092915050565b6000610520826105ff565b61052a818561061b565b935061053a818560208601610635565b80840191505092915050565b60006105528284610515565b915081905092915050565b6000606082019050818103600083015261057781866104dc565b9050818103602083015261058b81856104dc565b9050818103604083015261059f81846104dc565b9050949350505050565b60006105b36105c4565b90506105bf828261069a565b919050565b6000604051905090565b600067ffffffffffffffff8211156105e9576105e86106fa565b5b6105f282610729565b9050602081019050919050565b600081519050919050565b600082825260208201905092915050565b600081905092915050565b82818337600083830152505050565b60005b83811015610653578082015181840152602081019050610638565b83811115610662576000848401525b50505050565b6000600282049050600182168061068057607f821691505b60208210811415610694576106936106cb565b5b50919050565b6106a382610729565b810181811067ffffffffffffffff821117156106c2576106c16106fa565b5b80604052505050565b7f4e487b7100000000000000000000000000000000000000000000000000000000600052602260045260246000fd5b7f4e487b7100000000000000000000000000000000000000000000000000000000600052604160045260246000fd5b6000601f19601f830116905091905056fea26469706673582212202ffd07baac5f0bda0a078862b075efbba817e086309b0d2d7890fc618cd176c764736f6c63430008040033",
  "immutableReferences": {},
  "source": "pragma solidity 0.8.4;\n\ncontract digitalCertificate {\n    \n    mapping(string => Certificate) public certificates;\n    \n    struct Certificate{\n        string email;\n        string key_url;\n        string cert_url;\n    }\n\n    function addCertificate (string memory email, string memory key_url, string memory cert_url) public {\n        certificates[email]=Certificate(email,key_url,cert_url);\n    }\n}",
  "sourcePath": "D:\\KULIAH\\TUGAS AKHIR\\Django\\ta-TTE\\tte_vue\\contracts\\Certificate.sol",
  "compiler": {
    "name": "solc",
    "version": "0.8.4+commit.c7e474f2.Emscripten.clang"
  },
  "schemaVersion": "3.4.3",
  "updatedAt": "2021-12-02T16:10:09.075Z",
  "networkType": "ethereum",
  "devdoc": {
    "kind": "dev",
    "methods": {},
    "version": 1
  },
  "userdoc": {
    "kind": "user",
    "methods": {},
    "version": 1
  }
}