{
  "contractName": "sign",
  "abi": [
    {
      "inputs": [
        {
          "internalType": "string",
          "name": "",
          "type": "string"
        },
        {
          "internalType": "uint256",
          "name": "",
          "type": "uint256"
        }
      ],
      "name": "docValidate",
      "outputs": [
        {
          "internalType": "string",
          "name": "email",
          "type": "string"
        },
        {
          "internalType": "string",
          "name": "first_name",
          "type": "string"
        },
        {
          "internalType": "string",
          "name": "last_name",
          "type": "string"
        },
        {
          "internalType": "string",
          "name": "file_url",
          "type": "string"
        },
        {
          "internalType": "string",
          "name": "hash",
          "type": "string"
        }
      ],
      "stateMutability": "view",
      "type": "function",
      "constant": true
    },
    {
      "inputs": [
        {
          "internalType": "uint256",
          "name": "",
          "type": "uint256"
        },
        {
          "internalType": "uint256",
          "name": "",
          "type": "uint256"
        }
      ],
      "name": "document",
      "outputs": [
        {
          "internalType": "string",
          "name": "email",
          "type": "string"
        },
        {
          "internalType": "string",
          "name": "first_name",
          "type": "string"
        },
        {
          "internalType": "string",
          "name": "last_name",
          "type": "string"
        },
        {
          "internalType": "string",
          "name": "file_url",
          "type": "string"
        },
        {
          "internalType": "string",
          "name": "hash",
          "type": "string"
        }
      ],
      "stateMutability": "view",
      "type": "function",
      "constant": true
    },
    {
      "inputs": [
        {
          "internalType": "uint256",
          "name": "_docId",
          "type": "uint256"
        },
        {
          "internalType": "string",
          "name": "_email",
          "type": "string"
        },
        {
          "internalType": "string",
          "name": "_fname",
          "type": "string"
        },
        {
          "internalType": "string",
          "name": "_lname",
          "type": "string"
        },
        {
          "internalType": "string",
          "name": "_url",
          "type": "string"
        },
        {
          "internalType": "string",
          "name": "_hash",
          "type": "string"
        }
      ],
      "name": "addSigner",
      "outputs": [],
      "stateMutability": "nonpayable",
      "type": "function"
    },
    {
      "inputs": [
        {
          "internalType": "uint256",
          "name": "_docId",
          "type": "uint256"
        }
      ],
      "name": "countSigner",
      "outputs": [
        {
          "internalType": "uint256",
          "name": "",
          "type": "uint256"
        }
      ],
      "stateMutability": "view",
      "type": "function",
      "constant": true
    },
    {
      "inputs": [
        {
          "internalType": "string",
          "name": "_hash",
          "type": "string"
        }
      ],
      "name": "countSignerValidate",
      "outputs": [
        {
          "internalType": "uint256",
          "name": "",
          "type": "uint256"
        }
      ],
      "stateMutability": "view",
      "type": "function",
      "constant": true
    }
  ],
  "bytecode": "0x608060405234801561001057600080fd5b50610fb8806100206000396000f3fe608060405234801561001057600080fd5b50600436106100575760003560e01c806351bad03b1461005c578063b17802d114610090578063c242de01146100c0578063d1515fa0146100f4578063f5c5084d14610124575b600080fd5b61007660048036038101906100719190610af5565b610140565b604051610087959493929190610d3f565b60405180910390f35b6100aa60048036038101906100a59190610ab4565b610451565b6040516100b79190610db5565b60405180910390f35b6100da60048036038101906100d59190610c73565b61047c565b6040516100eb959493929190610d3f565b60405180910390f35b61010e60048036038101906101099190610b49565b610777565b60405161011b9190610db5565b60405180910390f35b61013e60048036038101906101399190610b72565b610796565b005b600182805160208101820180518482526020830160208501208183528095505050505050818154811061017257600080fd5b90600052602060002090600502016000915091505080600001805461019690610e99565b80601f01602080910402602001604051908101604052809291908181526020018280546101c290610e99565b801561020f5780601f106101e45761010080835404028352916020019161020f565b820191906000526020600020905b8154815290600101906020018083116101f257829003601f168201915b50505050509080600101805461022490610e99565b80601f016020809104026020016040519081016040528092919081815260200182805461025090610e99565b801561029d5780601f106102725761010080835404028352916020019161029d565b820191906000526020600020905b81548152906001019060200180831161028057829003601f168201915b5050505050908060020180546102b290610e99565b80601f01602080910402602001604051908101604052809291908181526020018280546102de90610e99565b801561032b5780601f106103005761010080835404028352916020019161032b565b820191906000526020600020905b81548152906001019060200180831161030e57829003601f168201915b50505050509080600301805461034090610e99565b80601f016020809104026020016040519081016040528092919081815260200182805461036c90610e99565b80156103b95780601f1061038e576101008083540402835291602001916103b9565b820191906000526020600020905b81548152906001019060200180831161039c57829003601f168201915b5050505050908060040180546103ce90610e99565b80601f01602080910402602001604051908101604052809291908181526020018280546103fa90610e99565b80156104475780601f1061041c57610100808354040283529160200191610447565b820191906000526020600020905b81548152906001019060200180831161042a57829003601f168201915b5050505050905085565b60006001826040516104639190610d28565b9081526020016040518091039020805490509050919050565b6000602052816000526040600020818154811061049857600080fd5b9060005260206000209060050201600091509150508060000180546104bc90610e99565b80601f01602080910402602001604051908101604052809291908181526020018280546104e890610e99565b80156105355780601f1061050a57610100808354040283529160200191610535565b820191906000526020600020905b81548152906001019060200180831161051857829003601f168201915b50505050509080600101805461054a90610e99565b80601f016020809104026020016040519081016040528092919081815260200182805461057690610e99565b80156105c35780601f10610598576101008083540402835291602001916105c3565b820191906000526020600020905b8154815290600101906020018083116105a657829003601f168201915b5050505050908060020180546105d890610e99565b80601f016020809104026020016040519081016040528092919081815260200182805461060490610e99565b80156106515780601f1061062657610100808354040283529160200191610651565b820191906000526020600020905b81548152906001019060200180831161063457829003601f168201915b50505050509080600301805461066690610e99565b80601f016020809104026020016040519081016040528092919081815260200182805461069290610e99565b80156106df5780601f106106b4576101008083540402835291602001916106df565b820191906000526020600020905b8154815290600101906020018083116106c257829003601f168201915b5050505050908060040180546106f490610e99565b80601f016020809104026020016040519081016040528092919081815260200182805461072090610e99565b801561076d5780601f106107425761010080835404028352916020019161076d565b820191906000526020600020905b81548152906001019060200180831161075057829003601f168201915b5050505050905085565b6000806000838152602001908152602001600020805490509050919050565b6000808781526020019081526020016000206040518060a001604052808781526020018681526020018581526020018481526020018381525090806001815401808255809150506001900390600052602060002090600502016000909190919091506000820151816000019080519060200190610814929190610994565b506020820151816001019080519060200190610831929190610994565b50604082015181600201908051906020019061084e929190610994565b50606082015181600301908051906020019061086b929190610994565b506080820151816004019080519060200190610888929190610994565b50505060018160405161089b9190610d28565b90815260200160405180910390206040518060a001604052808781526020018681526020018581526020018481526020018381525090806001815401808255809150506001900390600052602060002090600502016000909190919091506000820151816000019080519060200190610915929190610994565b506020820151816001019080519060200190610932929190610994565b50604082015181600201908051906020019061094f929190610994565b50606082015181600301908051906020019061096c929190610994565b506080820151816004019080519060200190610989929190610994565b505050505050505050565b8280546109a090610e99565b90600052602060002090601f0160209004810192826109c25760008555610a09565b82601f106109db57805160ff1916838001178555610a09565b82800160010185558215610a09579182015b82811115610a085782518255916020019190600101906109ed565b5b509050610a169190610a1a565b5090565b5b80821115610a33576000816000905550600101610a1b565b5090565b6000610a4a610a4584610df5565b610dd0565b905082815260208101848484011115610a6257600080fd5b610a6d848285610e57565b509392505050565b600082601f830112610a8657600080fd5b8135610a96848260208601610a37565b91505092915050565b600081359050610aae81610f6b565b92915050565b600060208284031215610ac657600080fd5b600082013567ffffffffffffffff811115610ae057600080fd5b610aec84828501610a75565b91505092915050565b60008060408385031215610b0857600080fd5b600083013567ffffffffffffffff811115610b2257600080fd5b610b2e85828601610a75565b9250506020610b3f85828601610a9f565b9150509250929050565b600060208284031215610b5b57600080fd5b6000610b6984828501610a9f565b91505092915050565b60008060008060008060c08789031215610b8b57600080fd5b6000610b9989828a01610a9f565b965050602087013567ffffffffffffffff811115610bb657600080fd5b610bc289828a01610a75565b955050604087013567ffffffffffffffff811115610bdf57600080fd5b610beb89828a01610a75565b945050606087013567ffffffffffffffff811115610c0857600080fd5b610c1489828a01610a75565b935050608087013567ffffffffffffffff811115610c3157600080fd5b610c3d89828a01610a75565b92505060a087013567ffffffffffffffff811115610c5a57600080fd5b610c6689828a01610a75565b9150509295509295509295565b60008060408385031215610c8657600080fd5b6000610c9485828601610a9f565b9250506020610ca585828601610a9f565b9150509250929050565b6000610cba82610e26565b610cc48185610e31565b9350610cd4818560208601610e66565b610cdd81610f5a565b840191505092915050565b6000610cf382610e26565b610cfd8185610e42565b9350610d0d818560208601610e66565b80840191505092915050565b610d2281610e4d565b82525050565b6000610d348284610ce8565b915081905092915050565b600060a0820190508181036000830152610d598188610caf565b90508181036020830152610d6d8187610caf565b90508181036040830152610d818186610caf565b90508181036060830152610d958185610caf565b90508181036080830152610da98184610caf565b90509695505050505050565b6000602082019050610dca6000830184610d19565b92915050565b6000610dda610deb565b9050610de68282610ecb565b919050565b6000604051905090565b600067ffffffffffffffff821115610e1057610e0f610f2b565b5b610e1982610f5a565b9050602081019050919050565b600081519050919050565b600082825260208201905092915050565b600081905092915050565b6000819050919050565b82818337600083830152505050565b60005b83811015610e84578082015181840152602081019050610e69565b83811115610e93576000848401525b50505050565b60006002820490506001821680610eb157607f821691505b60208210811415610ec557610ec4610efc565b5b50919050565b610ed482610f5a565b810181811067ffffffffffffffff82111715610ef357610ef2610f2b565b5b80604052505050565b7f4e487b7100000000000000000000000000000000000000000000000000000000600052602260045260246000fd5b7f4e487b7100000000000000000000000000000000000000000000000000000000600052604160045260246000fd5b6000601f19601f8301169050919050565b610f7481610e4d565b8114610f7f57600080fd5b5056fea26469706673582212204695c000bd3d5b88884e2e27dfcda337ed6ff99a5599685156c4faceaa13693464736f6c63430008040033",
  "immutableReferences": {},
  "source": "pragma solidity 0.8.4;\r\n\r\ncontract sign {\r\n    struct Signer{\r\n        string email;\r\n        string first_name;\r\n        string last_name;\r\n        string file_url;\r\n        string hash;\r\n    }\r\n     \r\n    mapping (uint => Signer[]) public document;\r\n    mapping (string => Signer[]) public docValidate;\r\n\r\n    function addSigner(uint _docId,string memory _email,string memory _fname,string memory _lname,string memory _url,string memory _hash)public{\r\n        document[_docId].push(Signer(_email,_fname,_lname,_url,_hash));\r\n        docValidate[_hash].push(Signer(_email,_fname,_lname,_url,_hash));\r\n    }\r\n\r\n    function countSigner(uint  _docId) public view returns (uint){\r\n        return document[_docId].length;\r\n    }\r\n    \r\n    function countSignerValidate(string memory _hash) public view returns (uint){\r\n        return docValidate[_hash].length;\r\n    }\r\n\r\n}",
  "sourcePath": "D:\\KULIAH\\TUGAS AKHIR\\Django\\ta-TTE\\tte_vue\\contracts\\Sign.sol",
  "compiler": {
    "name": "solc",
    "version": "0.8.4+commit.c7e474f2.Emscripten.clang"
  },
  "schemaVersion": "3.4.3",
  "updatedAt": "2021-12-02T16:10:10.470Z",
  "networkType": "ethereum",
  "devdoc": {
    "kind": "dev",
    "methods": {},
    "version": 1
  },
  "userdoc": {
    "kind": "user",
    "methods": {},
    "version": 1
  }
}